:020000040800F2
:10000000203700200501000871270008F9240008A6
:100010006D270008B1070008A530000800000000A7
:10002000000000000000000000000000AD280008F3
:10003000F107000800000000D5270008AF280008DD
:100040001F0100081F0100081F0100081F01000810
:100050001F0100081F0100081F0100081F01000800
:100060001F0100081F0100081F0100081F010008F0
:100070001F0100081F0100081F010008B507000844
:100080001F0100081F0100081F0100081F010008D0
:100090001F0100081F0100081F0100081F010008C0
:1000A0001F0100081F0100081F0100081F010008B0
:1000B0001F0100081F0100081F0100081F010008A0
:1000C0001F0100081F0100081F0100081F01000890
:1000D0001F01000885300008953000081F01000846
:1000E0001F0100081F0100081F010008DFF810D0E1
:1000F00000F0CEFA0048004785400008AFF30080CA
:10010000203700200648804706480047FEE7FEE704
:10011000FEE7FEE7FEE7FEE7FEE7FEE7FEE7FEE7B7
:1001200021290008ED000008202A04DB203A21FAEA
:1001300002F00021704721FA02F3D040C2F1200200
:10014000914008431946704740EA01039B0703D0DA
:1001500009E008C9121F08C0042AFAD203E011F806
:10016000013B00F8013B521EF9D27047D2B201E0C8
:1001700000F8012B491EFBD270470022F6E710B5AC
:1001800013460A4604461946FFF7F0FF204610BD05
:10019000F0B480EA0102D40F4200B2EB410F02D268
:1001A0000246084611464A0042D0C30DDDB2C1F3F3
:1001B000C752AD1A202D35DAC1F3160141F4000201
:1001C00004B15242C5F1200602FA06F12A41104458
:1001D000B3EBD05F23D0C4B1012DA0EBC35009DC39
:1001E000F0BC4FF0004202EAC352DBB200F500005F
:1001F00000F005B9400000F1807000EBC350A0F1A1
:10020000807040EAD170490009E0490841EAC071B4
:10021000A0EBC35000F50000400800EBC350F0BC59
:1002200000F0E4B86142012202EB4101001BF6E755
:10023000F0BC704781F00041AAE780F00040A7E7DA
:1002400080EA010210B502F00043400022D04A00CB
:100250001FD0010E01EB1261C0F35600C2F356022B
:1002600040F4000042F40002A0FB022000047F39A9
:10027000140400D0401C50EA124001D44000491E32
:10028000C2B20C0604EBD010401C4008802A02D0F9
:1002900003E0002010BD20F00100002900DA00205A
:1002A000184310BD30B480EA010202F0004530F07E
:1002B000004221F0004013D090B1C30DD40DC2F321
:1002C0001601C0F31600E41A41F4000140F40002E4
:1002D0007D34914201D3641C00E04900002C02DA15
:1002E00030BC002070474FF400000023914201D33E
:1002F000891A034340084FEA4101F7D151B19142B5
:1003000002D14FF0004105E002D24FF0010101E0BF
:100310006FF0010103EBC450284430BC00F066B814
:10032000C10F80EAE0700844CA079623002100F05C
:1003300066B8C1F30A5210B5C1F3130140F2FF339E
:1003400041F480119A4201DA002010BD40F233439B
:100350009A42A2F2334203DC5242FFF7E5FE10BD9F
:10036000904010BD00F0004230F000400AD0C10DB6
:1003700001F56071C0F3160042EA0151C20840075E
:10038000114370470020014670472DE9F05F054694
:10039000002092469B4688460646814640241BE044
:1003A0002846414647462246FFF7BEFE53465A4678
:1003B000C01A914110D311461846224600F07AF92E
:1003C0002D1A67EB01084F4622460120002100F05C
:1003D00071F917EB00094E41201EA4F10104DFDC86
:1003E000484631462A464346BDE8F09F0029A8BF4B
:1003F0007047401C490008BF20F00100704710B44E
:10040000B0FA80FC00FA0CF050EA010404BF10BC02
:10041000704749B1CCF1200421FA04F411FA0CF12F
:1004200018BF012121430843A3EB0C01CB1D4FEA68
:1004300000614FEA102042BF002010BC704700EB63
:10044000C35010440029A4BF10BC7047401C490091
:1004500008BF20F0010010BC70472DE9FE4F804618
:1004600081EA0300C00F0C46009021F0004123F008
:100470000045B8EB0200A94105D24046214690460E
:100480001C460B46024623F00040104347D0270D80
:10049000C7F30A00C3F30A510290401A01904028A2
:1004A0006BDAC3F3130040F4801B0098924620B12E
:1004B0000023D2EB030A63EB0B0B01985946C0F102
:1004C0004002504600F0F6F806460D4650465946A2
:1004D000019A00F0FEF810EB08006141002487EA61
:1004E000115284EAE7731A4340D0009A62B3019A2A
:1004F000012A4FEA075215DC001B61EB02014FF0A5
:10050000004202EA0752CDE90042001C41F5801189
:1005100032462B4600F0FEF803B0BDE8F08F4046AF
:100520002146F9E7001B61EB0201001C41F5801335
:1005300000185B412018A2F5001747EB030140EAC1
:10054000D570B6196D4111E06D084FEA360645EADF
:10055000C0754FEA0752001B61EB0201001C41F518
:10056000801149084FEA30000019514132462B46AC
:1005700003B0BDE8F04F00F0BEB800980122400083
:100580000023D0EB020263EBE073009821464FEAB0
:10059000E074B8EB000061EB0401E9E783F000438D
:1005A0005BE781F0004158E72DE9F041054621F075
:1005B00000400C46284309D0C4F30A5040F23341AE
:1005C000884205DD28462146BDE8F0812846FBE744
:1005D00040F2FE31884210DC0CDB4FEA043040EA86
:1005E000155050EA053105D0104804F00041014390
:1005F0000020E9E700200146E6E7A0F2334046424A
:10060000C6F140022846214600F054F807468846C5
:10061000284621463246FFF787FD43463A4600F01A
:100620006AF83246BDE8F04100F044B80000F03FFF
:1006300030B5041E71F1000404DB4FF00044404269
:1006400064EB0101141E73F1000405DB1C464FF03E
:100650000043524263EB04038B4208BF824230BD29
:1006600030B5041E71F1000404DB4FF00044404239
:1006700064EB0101141E73F1000405DB1C464FF00E
:100680000043524263EB0403994208BF904230BDDD
:10069000064C074D06E0E06840F0010394E80700CF
:1006A00098471034AC42F6D3FFF724FD10450008FC
:1006B00030450008202A04DB203A00FA02F100202D
:1006C00070479140C2F1200320FA03F31943904090
:1006D0007047202A06DBCB17203A41FA02F043EAA2
:1006E000E07306E041FA02F3D040C2F120029140EB
:1006F00008431946704710B5141E73F1000408DA58
:10070000401C41F1000192185B411A4301D120F0D5
:10071000010010BD2DE9F04D92469B4611B1B1FA92
:1007200081F202E0B0FA80F220329046FFF7C2FF79
:1007300004460F4640EA0A0041EA0B0153465A4676
:10074000084313D0114653EA010019D0C8F1400202
:100750005046FFF7E9FC05460E46504659464246CC
:10076000FFF7A8FF084305D0012004E020463946E2
:10077000BDE8F08D0020054346EAE0762C43374380
:100780000A986305E40AA0EB08000022FD0A44EA87
:1007900047540A3002D500200146E9E70105101947
:1007A0006941DDE9084500196941BDE8F04DA2E75E
:1007B00000BFFEE710B5024800F0D2F810BD0000FF
:1007C000EC00002030B590F840500124AC40C56BDF
:1007D0006C60046863604468102C04D10468A260F3
:1007E0000468E16003E00468A1600468E26030BD71
:1007F000704730B504460D46204601F0A5FE08B10D
:10080000002030BD2278201D296840F82210207871
:10081000401C0A2190FBF1F201FB12002070012024
:10082000EFE730B504460D46204601F09CFE08B1C6
:10083000002030BD29782278A01C81542178481CE2
:10084000C11700EB91618911A0EB8111217001208A
:10085000EFE772B600BFFEE70146002291F82100E3
:10086000022808D00420886300BF002081F82000FF
:1008700000BF012070470868006820F00E000B6878
:1008800018600868006820F001000B68186091F893
:10089000403001209840CB6B5860012081F8210046
:1008A00000BF002081F8200000BF1046E2E70000F2
:1008B00070B50446002594F82100022803D00420D6
:1008C000A063012548E02068006820F00E00216840
:1008D00008602068006820F00100216808601F4956
:1008E0002068884201D1012026E01C49143120688B
:1008F000884201D110201FE0184928312068884221
:1009000001D1801518E015493C312068884201D199
:10091000801411E0114950312068884202D14FF40F
:10092000803009E00D4964312068884202D14FF4DB
:10093000801001E04FF080700849083948600120BC
:1009400084F8210000BF002084F8200000BF606B05
:1009500010B12046616B8847284670BD08000240F0
:1009600070B50446E06B05682068066894F840108E
:10097000042088402840002846D006F004000028C3
:1009800042D02068006800F0200028B92068006884
:1009900020F004002168086057492068884201D18E
:1009A000042027E0544914312068884201D14020B6
:1009B00020E0514928312068884201D1001519E012
:1009C0004D493C312068884202D14FF4804011E00B
:1009D000494950312068884202D14FF4802009E013
:1009E000454964312068884202D14FF4800001E01B
:1009F0004FF08060404908394860E06A00287AD0AA
:100A00002046E16A884776E094F84010022088404A
:100A10002840A0B306F0020088B32068006800F008
:100A2000200040B92068006820F00A0021680860B2
:100A3000012084F8210030492068884201D1022039
:100A400028E02D4914312068884201D1202021E07E
:100A5000294928312068884201D140151AE02649E9
:100A60003C312068884202D14FF4005012E0224904
:100A700050312068884203D14FF400300AE017E07B
:100A80001D4964312068884202D14FF4001001E012
:100A90004FF0007018490839486000BF002084F802
:100AA000200000BFA06A30B32046A16A884722E038
:100AB00094F84010082088402840E0B106F0080073
:100AC000C8B12068006820F00E002168086094F822
:100AD000401001208840E16B48600120A06384F849
:100AE000210000BF002084F8200000BF206B10B15F
:100AF0002046216B884770BD080002400146002255
:100B000009B901207047164B0868C01A1423B0FBBE
:100B1000F3F08000086412480838C863022081F8A6
:100B200021000868026843F6F0708243D1E90103AE
:100B30001843CB6818430B6918434B6918438B69FA
:100B40001843CB6918430243086802600020886399
:100B5000012081F82100002081F8200000BFD1E7AA
:100B6000080002402DE9F04104460D4616461F4696
:100B70004FF0000800BF94F82000012802D10220A5
:100B8000BDE8F081012084F8200000BF94F8210026
:100B900001282CD1022084F821000020A0632068C5
:100BA000006820F00100216808603B463246294673
:100BB0002046FFF707FEE06A30B12068006840F089
:100BC0000E00216808600BE02068006820F0040037
:100BD000216808602068006840F00A002168086009
:100BE0002068006840F001002168086006E000BF4E
:100BF000002084F8200000BF4FF002084046BFE705
:100C000070B5044600F0B0F906462546681C10B1E0
:100C100004480078054400BF00F0A6F9801BA842F4
:100C2000FAD370BD0C0000202DE9F84703460022DE
:100C300094466EE14FF0010808FA02F4D1F8008002
:100C400008EA0400A0427DD1DFF8DCA2D1F80480DC
:100C5000A8EB0A09D0453AD014DCB8F1030F50D004
:100C600009DCB8F1000F31D0B8F1010F1CD0B8F198
:100C7000020F49D120E0B8F1110F18D0B8F1120FCE
:100C800042D11EE0B9F5881F25D006DCB9F5803FBA
:100C900020D0B9F5801F37D11AE0B9F5001F18D060
:100CA000B9F5041F30D117E0D1F80CC02DE0D1F810
:100CB0000C8008F1040C28E0D1F80C8008F1080C35
:100CC00023E0D1F80C8008F10C0C1EE000BF00BF3F
:100CD00000BF00BF00BF00BFD1F80880B8F1000F0F
:100CE00002D14FF0040C0BE0D1F80880B8F1010FED
:100CF00003D14FF0080C1C6102E04FF0080C5C615E
:100D000003E04FF0000C00E000BF00BFFF2801D857
:100D1000984601E003F104084646FF2802D84FEA4E
:100D2000820803E0A2F108084FEA88084746D6F88F
:100D300000804FF00F0909FA07F928EA09080CFAB0
:100D400007F900E088E048EA0908C6F80080D1F811
:100D5000048008F08058B8F1805F7DD100BFDFF8D3
:100D6000CC81D8F8188048F00108DFF8C091C9F8A4
:100D70001880C846D8F8188008F00108CDF800801F
:100D800000BF00BF4FEAB9384FEA920958F829501E
:100D90004FEA82784FEA18794FF00F0808FA09F8FD
:100DA00025EA0805DFF88881434502D14FF00008A5
:100DB00016E0DFF88081434502D14FF001080FE0D3
:100DC000DFF87481434502D14FF0020808E0DFF8F4
:100DD0006C81434502D14FF0030801E04FF0040855
:100DE0004FEA82794FEA197908FA09F848EA0505C5
:100DF000DFF84C814FEA920948F82950D1F8048075
:100E000008F48018B8F5801F0AD1DFF83881D8F8C7
:100E1000008048EA0008DFF82C91C9F8008009E05A
:100E2000DFF82081D8F8008028EA0008DFF8149164
:100E3000C9F80080D1F8048008F40018B8F5001F44
:100E400010D1DFF8008108F10408D8F8008048EAE2
:100E50000008DFF8F09000E05AE009F10409C9F851
:100E600000800DE0DFF8DC8008F10408D8F800808D
:100E700028EA0008DFF8CC9009F10409C9F80080DD
:100E8000D1F8048008F40038B8F5003F0ED1DFF83F
:100E9000B480A8F10408D8F8008048EA0008DFF818
:100EA000A490A9F10409C9F800800DE0DFF894804E
:100EB000A8F10408D8F8008028EA0008DFF8849038
:100EC000A9F10409C9F80080D1F8048008F4803839
:100ED000B8F5803F0ED1DFF86C80A8F10808D8F88B
:100EE000008048EA0008DFF85C90A9F10809C9F819
:100EF00000800DE0DFF84C80A8F10808D8F80080E9
:100F000028EA0008DFF83C90A9F10809C9F8008038
:100F1000521CD1F8008028FA02F8B8F1000F7FF4D3
:100F200089AEBDE8F88700000000111000100240F3
:100F300000080140000C0140001001400014014075
:100F4000080001400804014010B5C26821EA02030C
:100F500002EA010443EA0443036110BD0AB10161DE
:100F600001E00B040361704701480068704700000E
:100F70000400002003480068034909780844014937
:100F800008607047040000200C00002010B50848DD
:100F9000006840F0100006490860032000F0A8F83F
:100FA0000F2000F007F800F02BF8002010BD000023
:100FB0000020024070B504460E4800784FF47A7164
:100FC000B1FBF0F00C490968B1FBF0F5284600F0E0
:100FD000F9FB08B1012070BD102C07D20022214678
:100FE000501E00F047F80548046001E00120F2E7D8
:100FF0000020F0E70C000020100000200800002076
:1010000008B500BF1148806940F001000F498861B0
:101010000846806900F00100009000BF00BF00BFDB
:101020000846C06940F08050C8610846C06900F0B9
:101030008050009000BF00BF00BF0549486820F005
:10104000E06040F00070486000BF08BD0010024042
:101050000000014001460846002809DB00F01F039C
:1010600001229A4043099B0003F1E023C3F80021C9
:1010700000BF70472DE9F05F80460D4616460027F9
:1010800002F022F8074639462A46334601F00700A7
:10109000C0F1070ABAF1040F02D94FF0040A01E0C7
:1010A000C0F1070AD14600F1040ABAF1070F02D2D3
:1010B0004FF0000A01E0A0F1030AD4464FF0010A04
:1010C0000AFA09FAAAF1010A0AEA020A0AFA0CFA69
:1010D0004FF0010B0BFA0CFBABF1010B0BEA030B0E
:1010E0004AEA0B042146404601F0F6FFBDE8F09FB6
:1010F00000BF00F00702064B19684FF6FF031940C6
:10110000044B0B4343EA0221014B196000BF7047B7
:101110000CED00E00000FA0570B504460D460CB970
:10112000012070BD5A48006800F00700A8420ED2A6
:101130005748006820F007002843554908600846D2
:10114000006800F00700A84201D00120E9E72078FC
:1011500000F0020002281DD1207800F004000428CD
:1011600005D14C48406840F4E0604A494860207826
:1011700000F00800082805D14648406840F4605057
:10118000444948604348406820F0F000A1680843A3
:1011900040494860207800F0010078B36068012879
:1011A00006D13C48006800F4003090B90120B8E74F
:1011B0006068022806D13748006800F0007040B926
:1011C0000120AEE73348006800F0020008B90120B2
:1011D000A7E73048406820F00300616808432D49C4
:1011E0004860FFF7C1FE064609E0FFF7BDFE801B21
:1011F00041F28831884202D9032092E707E025486E
:10120000406800F00C006168B0EB810FEDD1204820
:10121000006800F00700A8420ED91D48006820F0C1
:10122000070028431A4908600846006800F00700D4
:10123000A84201D0012074E7207800F004000428BF
:1012400007D11448406820F4E060E1680843114980
:101250004860207800F00800082808D10D48406850
:1012600020F46050216940EAC1000A49486000F05A
:101270003FF808494968C1F30311074A515CC84067
:101280000649086006480068FFF794FE002048E71A
:1012900000200240001002402244000810000020FC
:1012A000080000200148006870470000100000207E
:1012B00000B5FFF7F7FF04494968C1F30221034A6B
:1012C000515CC84000BD00000010024032440008DC
:1012D00000B5FFF7E7FF04494968C1F3C221034A9B
:1012E000515CC84000BD00000010024032440008BC
:1012F00070B500210022002400230020134D6968EE
:1013000001F00C05F5B1042D02D0082D19D101E032
:101310000F4819E00F4DC1F38346AB5D01F48035F2
:1013200055B10A4D6D68C5F340450B4E725D084DD1
:101330005D43B5FBF2F402E0084D03FB05F42046E3
:1013400002E000BF024800BF00BF70BD00100240B5
:1013500000127A00104400082044000800093D00F3
:10136000F8B504460CB90120F8BD207800F0010062
:10137000002878D0F848406800F00C0004280CD011
:10138000F548406800F00C00082811D1F248406888
:1013900000F48030B0F5803F0AD1EF48006800F4D7
:1013A000003000285FD0606800285CD10120DBE7B6
:1013B00000BF6068B0F5803F06D1E748006840F4A0
:1013C0008030E549086028E0606858B9E248006864
:1013D00020F48030E04908600846006820F480204E
:1013E00008601AE06068B0F5A02F0BD1DA480068F9
:1013F00040F48020D84908600846006840F48030F6
:1014000008600AE0D448006820F48030D2490860BF
:101410000846006820F48020086000BF606888B13A
:10142000FFF7A2FD054606E0FFF79EFD401B64287E
:1014300001D9032098E7C848006800F4003000286C
:10144000F2D010E0FFF790FD054606E0FFF78CFDB7
:10145000401B642801D9032086E7BF48006800F4D8
:1014600000300028F2D1207800F00200022857D185
:10147000B948406800F00C0050B1B748406800F02F
:101480000C00082818D1B448406800F4803098B99E
:10149000B148006800F0020020B12069012801D0A5
:1014A000012061E7AC48006820F0F800616940EA7B
:1014B000C100A949086033E02069E8B10120A749CB
:1014C0000860FFF751FD054606E0FFF74DFD401BA4
:1014D000022801D9032047E79F48006800F0020076
:1014E0000028F2D09C48006820F0F800616940EACA
:1014F000C1009949086013E0002098490860FFF78F
:1015000033FD054606E0FFF72FFD401B022801D9F9
:10151000032029E79048006800F002000028F2D17B
:10152000207800F0080008282DD1A069B8B101206A
:101530008B490860FFF718FD054606E0FFF714FD2C
:10154000401B022801D903200EE78348406A00F0BF
:1015500002000028F2D0012001F03EF913E0002043
:101560007F490860FFF700FD054606E0FFF7FCFC39
:10157000401B022801D90320F6E67748406A00F0B4
:1015800002000028F2D1207800F00400042873D172
:1015900000277148C06900F0805070B900BF6E48E4
:1015A000C06940F080506C49C8610846C06900F0CD
:1015B0008050009000BF00BF01276A48006800F417
:1015C0008070B0B96748006840F480706549086071
:1015D000FFF7CAFC054606E0FFF7C6FC401B64287F
:1015E00001D90320C0E65F48006800F4807000283D
:1015F000F2D000BFE068012806D15748006A40F0E9
:1016000001005549086227E0E06858B95248006A6D
:1016100020F00100504908620846006A20F00400EA
:10162000086219E0E06805280BD14B48006A40F0D9
:101630000400494908620846006A40F00100086257
:101640000AE04548006A20F0010043490862084664
:10165000006A20F00400086200BFE068A0B1FFF754
:1016600083FC054609E0FFF77FFC401B41F288310F
:10167000884202D9032077E622E03748006A00F06A
:1016800002000028EFD012E0FFF76EFC054608E0EC
:10169000FFF76AFC401B41F28831884201D90320E0
:1016A00062E62D48006A00F002000028F0D1012F08
:1016B00005D12948C06920F080502749C86100BF82
:1016C000E069C8B32448406800F00C00082860D0E6
:1016D000E069022848D1002020490866FFF744FC51
:1016E000054606E0FFF740FC401B022801D9032015
:1016F0003AE61948006800F000700028F2D1206A2C
:10170000B0F5803F07D11448406820F40030A1684C
:10171000084311494860D4E9080108430E49496863
:1017200021F4741108430C49486001200B490866F4
:10173000FFF71AFC054607E03DE0FFF715FC401BEC
:10174000022801D903200FE60348006800F000706A
:101750000028F2D02FE000000010024000004242BA
:101760008004424200700040002014490866FFF7E0
:10177000FBFB054606E0FFF7F7FB401B022801D9FB
:101780000320F1E50E48006800F000700028F2D157
:1017900011E0E069012800D1E6E50948466806F451
:1017A0008031206A814204D106F47011606A81425E
:1017B00001D00120D8E50020D6E50000000042421B
:1017C0000010024070B504462546681EB0F1807FC7
:1017D00001D301200FE0681E4FF0E02148610F2186
:1017E0004FF0FF3001F078FC00204FF0E0218861DD
:1017F00007200861002070BD30B502460B4600BFCF
:1018000092F83C00012801D1022030BD012082F86D
:101810003C0000BF022082F83D0010684468106858
:10182000816824F070041868044310684460104D07
:101830001068A8420BD01068B0F1804F07D00D4D52
:101840001068A84203D00C4D1068A84205D121F0C1
:1018500080015868014310688160012082F83D00D2
:1018600000BF002082F83C0000BF00BFCDE70000B1
:10187000002C0140000400400008004010B5044660
:101880000CB9012010BD94F83D0028B9002084F85F
:101890003C00204600F026F8022084F83D00211D7F
:1018A000206801F03FF8012084F8460000BF84F86A
:1018B0003E0001213F2001554020015541200155A6
:1018C00000BF00BF012084F842004320015544209E
:1018D00001554520015500BF012084F83D0000203E
:1018E000D0E7000038B504462068B0F1804F2BD116
:1018F00000BF1648C06940F001001449C86108469D
:10190000C06900F00100009000BF00BF10481149FD
:1019100008601020486000210E4881608021C1606D
:101920004900016189004161002181614FF400514A
:10193000C161FFF7E3F808B1FEF78BFF00BF05496F
:1019400061620846446200BF38BD000000100240DA
:1019500058000240EC0000202DE9F04104460D46FD
:10196000002700BF94F83C00012802D10220BDE806
:10197000F081012084F83C0000BF022084F83D0083
:101980002068866826F0770626F47F462068866001
:101990002868502833D00CDC202850D004DC0028E4
:1019A0004BD0102851D149E0302849D040284CD1A3
:1019B00039E060282DD0702807D0B0F5805F03D0C3
:1019C000B0F5005F41D10DE041E0D5E902136A684E
:1019D000206801F07DF82068866846F07706206868
:1019E000866034E0D5E902136A68206801F070F877
:1019F0002068806840F480402168886027E0EA68B9
:101A00006968206801F034F95021206801F06BF812
:101A10001DE0EA686968206801F03DF960212068EE
:101A200001F061F813E0EA686968206801F020F9C4
:101A30004021206801F057F809E000BF00BF00BF57
:101A40002968206801F04FF801E0012700BF00BFBE
:101A5000012084F83D0000BF002084F83C0000BF56
:101A6000384684E77047000010B586B00446002071
:101A700002900390049005902068B0F1804F16D139
:101A800000BF0C48806940F004000A49886108469C
:101A9000806900F00400019000BF00BF01200290A7
:101AA00002200390059002A90348FFF7BDF806B095
:101AB00010BD000000100240000801402DE9F04177
:101AC00004460D461646002700BF94F83C00012846
:101AD00002D10220BDE8F081012084F83C0000BF63
:101AE00036B1042E1BD0082E31D00C2E5ED145E02D
:101AF0002946206801F000F82068806940F008005D
:101B0000216888612068806920F00400216888616C
:101B100020688069296908432168886148E029466E
:101B2000206801F019F82068806940F4006021689D
:101B300088612068806920F480602168886120685D
:101B40008069296940EA01202168886130E02946DE
:101B5000206801F035F82068C06940F0080021686D
:101B6000C8612068C06920F004002168C86120684D
:101B7000C069296908432168C86119E029462068BD
:101B800001F052F82068C06940F400602168C86123
:101B90002068C06920F480602168C8612068C0693D
:101BA000296940EA01202168C86101E0012700BFDE
:101BB00000BF00BF002084F83C0000BF384689E722
:101BC00010B504460CB9012010BD94F83D0028B9A9
:101BD000002084F83C00204600F025F8022084F81C
:101BE0003D00211D206800F09DFE012084F8460084
:101BF00000BF84F83E0001213F20015540200155DF
:101C00004120015500BF00BF012084F8420043205D
:101C10000155442001554520015500BF012084F89D
:101C20003D000020D0E7704710B5044604488442C8
:101C300005D1002100F014F901200249087010BDFF
:101C4000A400002018000020704700002DE9F04794
:101C500004460D4616461F464FF0000815B994F885
:101C60003E000BE0042D02D13F20005D06E0082D70
:101C700002D14020005D01E04120005D022801D139
:101C8000BDE8F08715B994F83E000BE0042D02D1B1
:101C90003F20005D06E0082D02D14020005D01E0FC
:101CA0004120005D012818D106B10FB90120E7E7F6
:101CB0001DB9022084F83E0011E0042D03D1022159
:101CC0003F2001550BE0082D03D102214020015592
:101CD00005E002214120015501E00120D0E735B1A6
:101CE000042D1FD0082D38D00C2D6CD150E0564952
:101CF000606A81625549606AC1625549606A0163E0
:101D0000216801F134023B463146606AFEF72AFF42
:101D100008B10120B4E72068C06840F40070216871
:101D2000C86053E04849A06A81624849A06AC1621C
:101D30004749A06A0163216801F138023B463146F8
:101D4000A06AFEF70FFF08B1012099E72068C0687C
:101D500040F480602168C86038E03B49E06A8162F5
:101D60003A49E06AC1623A49E06A0163216801F1D7
:101D70003C023B463146E06AFEF7F4FE08B1012022
:101D80007EE72068C06840F400602168C8601DE0FC
:101D90002D49206B81622D49206BC1622C49206B3B
:101DA0000163216801F140023B463146206BFEF79A
:101DB000D9FE08B1012063E72068C06840F4805074
:101DC0002168C86002E04FF0010800BF00BFB8F111
:101DD000000F36D101222946206800F0E5FD1D499B
:101DE0002068884201D1012000E0002028B120684D
:101DF000406C40F4004021684864164920688842DD
:101E00000BD02068B0F1804F07D01349206888427A
:101E100003D01249206888420DD12068806800F004
:101E20000709B9F1060F0CD02068006840F00100E6
:101E30002168086005E02068006840F00100216822
:101E4000086040461CE70000CB290008332A000840
:101E5000732A0008002C01400004004000080040E4
:101E600070B504460D46002635B1042D0ED0082D60
:101E700016D00C2D28D11DE02068C06820F4007019
:101E80002168C860606AFEF713FD1FE02068C06823
:101E900020F480602168C860A06AFEF709FD15E0A3
:101EA0002068C06820F400602168C860E06AFEF71E
:101EB000FFFC0BE02068C06820F480502168C860F7
:101EC000206BFEF7F5FC01E0012600BF00BF002EED
:101ED00046D100222946206800F066FD214920688D
:101EE000884201D1012000E0002090B100BF2068AD
:101EF000006A41F21111084050B92068006A891047
:101F0000084028B92068406C20F4004021684864EB
:101F100000BF00BF2068006A41F21111084050B9AB
:101F20002068006A8910084028B92068006820F0FD
:101F300001002168086000BF1DB9012084F83E003F
:101F40000EE0042D03D101213F20015508E0082DAA
:101F500003D101214020015502E00121412001551A
:101F6000304670BD002C0140704770472DE9F84F96
:101F70000446206805682068C668206847694FF0F5
:101F80000009CA4605F00F09B9F1000F0AD105F0A2
:101F9000200038B106F0200020B1204600F0DFFE1E
:101FA000BDE8F88FB9F1000F7BD007F0010018B938
:101FB00006F49070002874D005F0010030B106F4EA
:101FC000807018B1606C40F00100606405F004009E
:101FD00030B107F0010018B1606C40F0020060649D
:101FE00005F0020030B107F0010018B1606C40F05C
:101FF0000400606405F0080048B106F0200010B944
:1020000007F0010018B1606C40F008006064606C7B
:10201000002845D005F0200028B106F0200010B1BE
:10202000204600F09CFE20684069C0F3801A606C76
:1020300000F0080010B9BAF1000F2CD0204600F0D3
:1020400048FE2068406900F0400000B300BF00BFB8
:102050002168143151E8001F21F04000216814313B
:1020600041E80002002AF3D100BFE06B50B177488D
:10207000E16B4863E06BFEF71BFC88B1E06B416BE2
:1020800088470DE02046FFF770FF09E009E0204691
:10209000FFF76BFF04E02046FFF767FF0020606456
:1020A0007EE7206B012877D105F01000002873D05F
:1020B00006F010000028FAD000BF00200090206831
:1020C0000068009020684068009000BF00BF206852
:1020D000406900F0400000285FD0E06B0068406875
:1020E0001FFA80F8B8F1000F55D0A08D404552DDA1
:1020F000A4F82E80E06B8069202843D000BF00BF89
:1021000021680C3151E8001F21F4807021680C31E6
:1021100041E80002002AF3D100BF00BF00BF2168E0
:10212000143151E8001F21F001002168143141E809
:102130000002002AF3D100BF00BF00BF21681431A4
:1021400051E8001F21F040002168143141E80002ED
:10215000002AF3D100BF202084F842000020206331
:1021600000BF00BF21680C3151E8001F21F01000B2
:1021700021680C3141E80002002AF3D100BFE06B76
:10218000FEF76AFB02206063A08DE28D801A81B2A7
:102190002046FFF7E9FE03E742E0A08DE18D401AFB
:1021A0001FFA80F8E08DD0B3B8F1000F37D000BF30
:1021B00000BF21680C3151E8001F21F490702168A4
:1021C0000C3141E80002002AF3D100BF00BF00BF7C
:1021D0002168143151E8001F21F0010021681431F9
:1021E00041E80002002AF3D100BF202084F8420019
:1021F0000020206300BF00BF21680C3151E8001FA0
:1022000021F0100021680C3141E80002002AF3D1CE
:1022100000BF0220606341462046FFF7A5FEBFE6EF
:1022200005F0800030B106F0800018B1204600F0C3
:10223000B3FEB5E605F0400030B106F0400018B13D
:10224000204600F07CFDABE600BFA9E6BF2C0008ED
:1022500010B504460CB9012010BDA06900B100E022
:1022600000BF94F8410028B9002084F840002046BF
:1022700000F02AF8242084F841002068C06820F487
:1022800000502168C860204600F0E8FD2068006921
:1022900020F49040216808612068406920F02A00FD
:1022A000216848612068C06840F400502168C86017
:1022B00000206064202084F8410084F8420000205F
:1022C000606300BFC8E7000010B586B00446002078
:1022D00002900390049005903C492068884238D1D0
:1022E00000BF3B48806940F4804039498861084616
:1022F000806900F48040019000BF00BF00BF084625
:10230000806940F0040088610846806900F004009C
:10231000019000BF00BF48150290022003900320E7
:10232000059002A92B48FEF77FFC4FF480600290D5
:10233000002003900120049002A92648FEF774FCB7
:10234000002211462520FEF795FE2520FEF782FE8D
:102350003AE021492068884236D100BF1C48C06954
:1023600040F400301A49C8610846C06900F40030E2
:10237000019000BF00BF00BF0846806940F0040024
:1023800088610846806900F00400019000BF00BF2A
:1023900004200290022003900320059002A90D481A
:1023A000FEF742FC082002900020039001200490D8
:1023B00002A90848FEF738FC002211462620FEF745
:1023C00059FE2620FEF746FE06B010BD003801403B
:1023D00000100240000801400044004070B504466F
:1023E0000D46164694F8420020280BD105B10EB9CF
:1023F000012070BD0020206332462946204600F0AF
:10240000ABFDF6E70220F4E710B504460749206863
:10241000884209D101220649002001F017FF01225C
:1024200003490448FFF7DAFF10BD000000440040F4
:1024300000000020780100202DE9F84F04460E46E8
:10244000174699464FF0000A94F84100202850D1D1
:1024500006B117B90120BDE8F88F00206064212083
:1024600084F84100FEF780FD8246A784E784A068D7
:10247000B0F5805F04D1206910B90025B04602E0B4
:1024800035464FF000081EE05346002280212046CA
:10249000CDF8009000F0B0FD20B1202084F841007C
:1024A0000320D8E745B9B8F80000C0F30800216858
:1024B000486008F1020803E02878216848606D1C34
:1024C000E08C401EE084E08C0028DDD153460022E1
:1024D00040212046CDF8009000F08EFD20B1202054
:1024E00084F841000320B6E7202084F84100002052
:1024F000B1E70220AFE7704700BFFEE710B5044622
:102500000020607020702821201DFDF736FE10BDD0
:1025100010B504460020607020704021A01CFDF71B
:102520002CFE10BD014648780A78904201D1012066
:1025300070470020FCE7014648780A78904201D1B4
:10254000012070470020FCE701460878401C0A2261
:1025500090FBF2F302FB13004A78904201D1012074
:1025600070470020FCE701460A78501CC21700EBB8
:1025700092629211A0EB82124B789A4201D1012013
:1025800070470020FCE7000008B500BF0A4840691A
:1025900040F00100084948610846406900F0010028
:1025A000009000BF00BF002211460F20FEF762FD21
:1025B0000F20FEF74FFD08BD0010024000B585B0AA
:1025C0000020019002900390049000BF1D48806994
:1025D00040F010001B4988610846806900F0100037
:1025E000009000BF00BF00BF0846806940F0200097
:1025F00088610846806900F02000009000BF00BF9D
:1026000000BF0846806940F0040088610846806980
:1026100000F00400009000BF00BF012251030A48EF
:10262000FEF79CFC4FF40050019001200290002026
:1026300003900320049001A90348FEF7F5FA05B0C2
:1026400000BD0000001002400010014000B58DB038
:10265000002009900A900B900C90079008901C2184
:102660006846FDF78AFD4FF0804020490860002051
:10267000486000211D4881605921C160002101612D
:1026800080218161FFF7FAF808B1FEF7E2F84FF414
:102690008050099009A91548FFF75EF908B1FEF7C7
:1026A000D8F81248FFF78CFA08B1FEF7D2F80020EC
:1026B0000790089007A90D48FFF79EF808B1FEF7AC
:1026C000C8F860200090002001900290042004903F
:1026D000002269460548FFF7F1F908B1FEF7B9F89D
:1026E0000248FFF7C1F90DB000BD0000A4000020B2
:1026F00010B50B480B4908604FF4E13048600021E9
:1027000008488160C16001610C2141610021816143
:10271000C161FFF79DFD08B1FEF79BF810BD0000F9
:10272000003801403001002010B50D480D49086007
:102730004FF4E130486000210A488160C1600161C6
:102740000C21416100218161C161FFF781FD08B168
:10275000FEF77FF8012204490248FFF73FFE10BD53
:1027600000440040780100200000002000BFFEE788
:1027700000BFFEE710B503460C461846FFF7D2FE31
:1027800008B1002010BD5978181D50F821002060B4
:102790005878401C0A2190FBF1F201FB120058709E
:1027A0000120EFE710B503460C461846FFF7C3FEBD
:1027B00008B1002010BD5978981C405C20705978F1
:1027C000481CC11700EB91618911A0EB8111597070
:1027D0000120EFE77047000008B508490968C908FB
:1027E0004FF47A72B1FBF2F14143009100BF00BF98
:1027F00000994A1E00920029F9D108BD100000205E
:10280000F3B50246C82A00DBC7229DF80400C617AC
:1028100000EB16663612A0EB0626F3B29DF8050013
:10282000C61700EB16663612A0EB0626F4B29DF82A
:102830000600C61700EB16663612A0EB0626F5B2A8
:1028400002EB4200184E366806EB0011002028E02B
:1028500008280BDAC0F107070126BE401E400EB162
:102860003C2600E01E2621F8106018E010280BDA44
:10287000C0F10F070126BE4026400EB13C2600E005
:102880001E2621F810600AE0C0F117070126BE409D
:102890002E400EB13C2600E01E2621F81060461C9A
:1028A000F0B21828D4DBFCBD14000020704710B52E
:1028B00001F072FCFEF75EFB10BD00B58FB0282161
:1028C00005A8FDF75AFC14216846FDF756FC0120C7
:1028D0000590000406900020079001200990022036
:1028E0000C90C1030D914FF4E0110E9105A8FEF775
:1028F00037FD08B1FDF7ADFF0F20009002200190D9
:10290000002002904FF48060039000200490022188
:102910006846FEF701FC08B1FDF79BFF0FB000BD54
:102920007047000010B502681C4B984208D0B0F107
:10293000804F05D01A4B984202D01A4B984203D1CF
:1029400022F070024B681A43144B984208D0B0F141
:10295000804F05D0124B984202D0124B984203D1BF
:1029600022F44072CB681A4322F080034C6943EA98
:10297000040202608B68C3620B688362074B984253
:1029800001D10B69036301234361036903F0010370
:102990001BB1036923F00103036110BD002C01404A
:1029A000000400400008004030B501F01F0501247C
:1029B00004FA05F3046A9C430462046A01F01F05EB
:1029C00002FA05F52C43046230BD70B505466C6A09
:1029D000606AA84207D101202077A86918BB0120AE
:1029E00084F83E001FE0A06AA84207D102202077A9
:1029F000A869C0B901213F20015514E0E06AA8424E
:102A000007D104202077A86968B901214020015529
:102A100009E0206BA84206D108202077A86910B9E8
:102A20000121412001552046FFF7FEF800202077C4
:102A300070BD70B505466C6A606AA84202D101207B
:102A4000207710E0A06AA84202D1022020770AE095
:102A5000E06AA84202D10420207704E0206BA8425B
:102A600001D1082020772046FFF7EEF800202077DC
:102A700070BD70B505466C6A606AA84204D1012039
:102A8000207784F83E001DE0A06AA84205D102200C
:102A9000207701213F20015514E0E06AA84205D1CA
:102AA000042020770121402001550BE0206BA84233
:102AB00005D10820207701214120015502E00120A5
:102AC00084F83D002046FEF7CDFF0020207770BD42
:102AD00030B50C46816821F47F4142EA0325254345
:102AE0002943816030BD0A46816821F0700142F0BF
:102AF000070319438160704730B5026A056A25F003
:102B0000010505624368846924F0700424F003041D
:102B10000D682C4322F002028D682A430D4DA84215
:102B200006D100BF22F00802CD682A4322F0040239
:102B3000084DA84207D123F4807323F400734D6934
:102B40002B438D692B43436084614D68456302626A
:102B500030BD0000002C014030B5026A056A25F046
:102B6000100505624368846924F4E04424F4407449
:102B70000D6844EA052422F020028D6842EA05121D
:102B80000E4DA84207D100BF22F08002CD6842EA74
:102B9000051222F04002094DA84209D123F48063B6
:102BA00023F400634D6943EA85038D6943EA850395
:102BB000436084614D688563026230BD002C014032
:102BC00030B5026A056A25F4807505624368C469F8
:102BD00024F0700424F003040D682C4322F40072E6
:102BE0008D6842EA05220F4DA84207D100BF22F4AA
:102BF0000062CD6842EA052222F48062094DA842B3
:102C000009D123F4805323F400534D6943EA05139B
:102C10008D6943EA05134360C4614D68C563026270
:102C200030BD0000002C014030B5036A056A25F470
:102C3000805505624468C26922F4E04222F4407281
:102C40000D6842EA052223F400538D6843EA0533F8
:102C5000064DA84204D124F480444D6944EA851409
:102C60004460C2614D680564036230BD002C0140C0
:102C700030B50B461446026A056A25F00105056267
:102C8000816921F0F00141EA041122F00A021A439D
:102C90008161026230BD30B50B461446026A056A96
:102CA00025F010050562816921F4704141EA043183
:102CB00022F0A00242EA03128161026230BD70B5C7
:102CC00005466C6A0020E085E0842046FFF74DF958
:102CD00070BD00BF00BF02680C3252E8002F22F422
:102CE000907102680C3242E80013002BF3D100BF50
:102CF00000BF00BF0268143252E8002F22F0010129
:102D00000268143242E80013002BF3D100BF016BBC
:102D100001290ED100BF00BF02680C3252E8002F1B
:102D200022F0100102680C3242E80013002BF3D1AC
:102D300000BF202180F8421000210163704710B5C8
:102D400004462068C06820F040002168C860202048
:102D500084F841002046FFF7CEFB002010BDF8B5F7
:102D6000044694F84200222875D1A068B0F5805F2F
:102D70000CD1206950B90025A66A20684068C0F3CC
:102D800008003080A06A801CA06215E0A56A0026B9
:102D9000A068B0F5805F03D0A06828B9206918B991
:102DA00020684068287004E02068406800F07F00D8
:102DB0002870A06A401CA062E08D401E80B2E085B1
:102DC000002846D12068C06820F020002168C86033
:102DD0002068C06820F480702168C860206840695D
:102DE00020F0010021684861202084F84200002082
:102DF0006063206B012826D10020206300BF00BF44
:102E000021680C3151E8001F21F0100021680C31BD
:102E100041E80002002AF3D100BF2068006800F0FA
:102E2000100010280AD100BF002000902068006820
:102E3000009020684068009000BF00BFA18D204630
:102E4000FFF792F802E02046FFF7DEFA0020F8BD17
:102E500001E00020FBE70220F9E7000070B504461E
:102E60002168096921F44051E26811432268116127
:102E70002269A1681143626941EA02052168C968B3
:102E800041F20C62914329432268D160216849696B
:102E900021F44071A2691143226851612D4A2168D1
:102EA000914202D1FEF714FA01E0FEF701FA00EBBD
:102EB000C00101EB001162689200B1FBF2F100EB7E
:102EC000C00202EB001263689B00B2FBF3F26423C2
:102ED000B2FBF3F202EBC20303EB0212A1EB82019D
:102EE000322202EB01116422B1FBF2F101F0F00198
:102EF00000EBC00202EB001263689B00B2FBF3F22E
:102F00006423B2FBF3F201EB021200EBC00101EB10
:102F1000001163689B00B1FBF3F100EBC00303EB0E
:102F200000136668B600B3FBF6F36426B3FBF6F352
:102F300003EBC30606EB0313A1EB8301322303EB80
:102F400001116423B1FBF3F101F00F011144226878
:102F5000916070BD0038014010B5034699629A85B2
:102F6000DA8500205864222083F84200186928B1CD
:102F70001868C06840F480701C68E0601868406998
:102F800040F001001C6860611868C06840F02000D3
:102F90001C68E060002010BD014691F84100212826
:102FA00028D18868B0F5805F0BD1086948B90A6AF2
:102FB0001088C0F308000B685860086A801C08621B
:102FC00005E00B6A581C086218780B685860C88CBA
:102FD000401E80B2C88458B90868C06820F08000DC
:102FE0000B68D8600868C06840F040000B68D86083
:102FF000002070470220FCE72DE9F84304460D4607
:1030000017469846089E31E0701C70B3FDF7ACFF80
:10301000A0EB0800B04200D816B90320BDE8F88341
:103020002068C06800F00400F8B1802D1ED0402D4B
:103030001CD020680068C0F3C000B0B100BF002001
:10304000009020680068009020684068009000BFF1
:1030500000BF2046FFF73DFE0820606400BF00204F
:1030600084F8400000BF0120D8E7FFE7206800682F
:103070002840A84201D1012000E00020B842C3D07E
:103080000020CBE710B50248FEF770FF10BD00002E
:103090003001002010B50248FEF768FF10BD0000A7
:1030A0007801002000BFFEE70FB4054B10B503A95F
:1030B000044A029800F034F810BC5DF814FB0000DC
:1030C000F93D00089800002002480068C0F3022083
:1030D000704700000CED00E010B5002804DB0A0783
:1030E000130E054A135406E00A07140E034A00F0B3
:1030F0000F031B1FD45410BD00E400E018ED00E0E6
:1031000002E008C8121F08C1002AFAD170477047B0
:10311000002001E001C1121F002AFBD1704700000E
:103120002DE9FF4F8DB00F460546002606E0252805
:103130000BD0DDE90F1290476D1C761C2878002813
:10314000F5D111B03046BDE8F08F0024A246A1466B
:103150000122E94900E0044315F8013F203B02FA4F
:1031600003F00842F7D128782A2810D06FF02F02F8
:103170002878A0F13001092914D80AEB8A0102EB62
:10318000410144F0020400EB010A6D1CF0E701CF9D
:103190005FEA000A03D544F40054CAF1000A44F07F
:1031A00002046D1C28782E2817D115F8010F44F061
:1031B00004042A280ED06FF02F022878A0F13001E5
:1031C00009290AD809EB890102EB410100EB010949
:1031D0006D1CF2E757F8049B6D1C28786C280FD003
:1031E00006DC4C2817D068280DD06A2814D104E0DA
:1031F000742810D07A280FD10DE044F400140AE0AE
:1032000044F4801401E044F440146978814202D10E
:1032100004F580146D1C6D1C28786E281ED00CDC03
:10322000632830D004DC00288BD0582811D19FE0CF
:10323000642867D069280CD164E073282DD004DCA1
:103240006F2872D0702804D194E075286ED0782849
:103250006DD0DDE90F129047761C4BE1C4F30250AC
:10326000022806D0032809D0042801CF09D006601F
:1032700040E101CFF117C0E900613BE101CF0680D9
:1032800038E1067036E117F8040B8DF800000020D5
:103290008DF80100EB46012003E057F804BB4FF026
:1032A000FF3061074FF0000102D40DE008F1010189
:1032B000884649450FDA8045F8DB1BF808100029DD
:1032C000F4D108E008F1010188468142FADB1BF8DD
:1032D00008100029F6D1DDE90F23AAEB080081468A
:1032E000214600F031F9304400EB080604E0DDE946
:1032F0000F121BF8010B9047B8F10108F7D22146D5
:103300004846F2E00A21C4F302524FF0000B089144
:10331000022A04D001CFC117032A09D00AE0FF1DF9
:1033200027F00707F7E8020108E02CE01EE01FE0A5
:1033300000B2C117042A01D140B2C117021E71F1B7
:10334000000206DA0023D0EB030063EB01012D221B
:1033500002E0220504D52B228DF82420012203E06F
:10336000E20701D02022F7E7904653E00A210BE064
:10337000102109E010214FF0000B44F004044FF03D
:103380000809089103E008214FF0000B0891C4F3ED
:103390000252022A04D001CF0021032A06D006E0FF
:1033A000FF1D27F00707F7E8020103E080B2042AB7
:1033B00000D1C0B24FF0000822072BD52A78702A1E
:1033C00007D0DDF820C08CF0100C5CEA0B0C05D0A7
:1033D0000EE040228DF82420012208E050EA01038B
:1033E00006D030238DF824308DF825200222904617
:1033F000089B83F0080353EA0B030BD150EA010248
:1034000001D1620706D530228DF824204FF0010843
:10341000A9F101092A78582A04D038A20B9208AAE7
:103420000A920BE03AA2F9E75B46089AFCF7ADFF77
:103430000B9B9B5C0A9A521E0A92137050EA01027F
:10344000F2D10A98ADEB000000F1200B600702D525
:1034500024F4803401E04FF00109D94502DDA9EBE5
:103460000B0000E0002000EB0B0141440890AAEBA8
:10347000010AE00306D4DDE90F232146504600F09F
:1034800063F806444FF0000908E009A911F80900A3
:10349000DDE90F12904709F10109761CC145F4DB03
:1034A000E0030CD5DDE90F232146504600F04CF82F
:1034B000064404E0DDE90F1230209047761C08999D
:1034C000481E08900029F5DC08E00A980A9900785F
:1034D000491C0A91DDE90F129047761CBBF10001EF
:1034E000ABF1010BF1DC21465046DDE90F2300F082
:1034F00019F806446D1C21E60928010030313233E9
:10350000343536373839616263646566000000001F
:103510003031323334353637383941424344454609
:10352000000000002DE9F041044600251E46174624
:10353000880404D405E039462020B0476D1C641E81
:10354000F9D52846BDE8F0812DE9F0410446002573
:103550001E469046C80301D5302700E02027880486
:1035600004D505E041463846B0476D1C641EF9D5C8
:103570002846BDE8F08100002DE9F04704468A4660
:1035800025467622104911A0FFF78EFD681C00F039
:1035900069FC8146E81C00F065FC074649460EA020
:1035A000FFF782FD00BFB846002605E0A81D815D3B
:1035B0000DA0FFF779FD761C4645F7DB0CA0FFF761
:1035C00073FD00BFBDE8F087EC440008257320259B
:1035D00064202E0D0A0000006D73677479706520F9
:1035E000253034782E0D0A003078253032782000CE
:1035F0000D0A00002DE9F05F06468A463546442252
:10360000324933A0FFF750FD681C00F02BFC8146C7
:10361000E81C00F027FC8046494630A0FFF744FD37
:1036200000BF4746002405E0A81D015D2FA0FFF75D
:103630003BFD641CBC42F7DB2EA0FFF735FD00BF4D
:10364000B5F803000A283EDBAC1D2078FA2839D1F2
:103650006078032836D1E17827A0FFF725FDE078D0
:1036600030B1012807D0022814D0032824D120E04B
:1036700000F0BEF824E0601D00F0F4FB8346E7791B
:103680003A46594622A0FFF70FFD3946584600F04A
:10369000DFF815E0601D00F0E5FB8346E7793A4668
:1036A00059461BA0FFF700FD3946584600F050F878
:1036B00006E000F043F803E01BA0FFF7F5FC00BFB5
:1036C00000BF00BF00BFBDE8F09F0000DF4400085E
:1036D0002573202564202E0D0A0000006D73677489
:1036E00079706520253034782E0D0A003078253029
:1036F000327820000D0A0000706B742D3E6F705FF1
:10370000636F646520253032782E0D0A00000000BA
:103710006377202564206272696768746E657373CD
:103720002025642E0D0A0000756E6B6F6E77206F7A
:10373000705F636F6465200D0A00000010B5034AD6
:10374000917C108A00F0D4F810BD00001C0000200D
:10375000FEB504460D46002640F68C20844205DB6B
:1037600041F66410844201DC13480482012D03DB1E
:10377000642D01DC10498D740F48807C012805DB25
:103780000D48807C052801DC052601E00A48867C7E
:103790000948018A324600F06EFB0748807C0649E2
:1037A000098ACDE9006102900348038A9C220349FB
:1037B00003A0FFF779FCFEBD1C000020B144000807
:1037C0005B25732025645D207265616C20736574D0
:1037D000205B25642C25645D2C206170702073654E
:1037E00074205B25642C2025645D2E0D0A000000EA
:1037F0001CB50948018A002200F03DFB0648807C88
:103800000549098ACDE900100348038A6622034965
:1038100003A0FFF749FC1CBD1C00002090440008D9
:103820005B25732025645D207265616C207365746F
:10383000205B25642C305D2C2061707020736574D2
:10384000205B25642C2025645D2E0D0A00000000FD
:10385000FEB504460D46002640F68C20844205DB6A
:1038600041F66410844201DC13480482012D03DB1D
:10387000642D01DC10498D740F48807C012805DB24
:103880000D48807C052801DC052601E00A48867C7D
:103890000948018A324600F0EEFA0748807C064962
:1038A000098ACDE9006102900348038A8122034915
:1038B00003A0FFF7F9FBFEBD1C000020A144000897
:1038C0005B25732025645D207265616C20736574CF
:1038D000205B25642C25645D2C206170702073654D
:1038E00074205B25642C2025645D2E0D0A000000E9
:1038F0002DE9FC4105460E466C46FA202070032057
:1039000060700120A0700020E07000F053FB207177
:1039100029126171A571E67100231A4608216846D3
:1039200000F083F800F046FB074633462A46394646
:1039300002A0FFF7B9FBBDE8FC810000636F6D5F7B
:1039400063775F7265706F72743A6F6E6F66662030
:1039500025642C2063772025642C206272696768B7
:10396000746E6573732025642E0D0A002DE9F047EF
:1039700080460E469146F01D87B2384600F094FB13
:1039800005462C460DB9BDE8F0875520207041460C
:10399000601C00F0D1FC3146E01C00F0CDFC4A4632
:1039A0003146404600F014FA6071002005E019F835
:1039B0000020A11D0A54411C88B2B042F7DBAA21A5
:1039C000781E29543B462A460021044800F008F896
:1039D000284600F01FFA00BFD5E70000C80200200B
:1039E000F8B507460D4616461C4604F10C0000F0DB
:1039F0005BFB0090009800B9F8BD00980C3000996E
:103A000008600099224608683146FCF79DFB009843
:103A100084800098856069463846FCF7EAFE10B954
:103A2000009800F0F7F900BFE6E72DE9F05F0746E0
:103A30000E4692469B46B01D00F0FF08404600F03F
:103A400033FB05462C460DB9BDE8F09F02202070DF
:103A50000020A4F801000120E0702071667105F1DA
:103A60000609002004E0395C09F80010411CC8B2C6
:103A7000B042F8DB2A4641464420FFF777FF28464C
:103A800000F0C8F900BFDFE710B50448FEF736FDC7
:103A90000348FEF733FD00F0A1FB10BDC802002073
:103AA000F402002010B51048007800B910BD0F498D
:103AB0000F48FEF75FFEA0B10C480068806848B16F
:103AC0000A4B1B689988094B1B681868074B1B68D1
:103AD0009A6890470548006800F09CF90020034967
:103AE000086000BFE2E700007C00002084000020A6
:103AF000F40200202DE9F04706468846B1464FF013
:103B0000020A0024002716B1B8F1000F01D1BDE868
:103B1000F08700240FE009F1010000F0A3F9054649
:103B20000F4830F83400A84203D10D4800EBC40719
:103B300003E0601CC4B25445EDDB00BF544506D120
:103B40002B469C22074908A0FFF7AEFADFE72FB10A
:103B5000786818B1414630467A68904700BFD6E78A
:103B600088000020F94400085B25732025645D204F
:103B70002530347820756E6B6E6F7720636D6474BA
:103B80007970650D0A0000002DE9F0470026002439
:103B90003B48007808B9BDE8F08740223949002049
:103BA00000F028FB0646002E52D000244DE0364897
:103BB00090F8400088B93348005D552843D131481A
:103BC000025D314890F8401090F84000401C2E4BA8
:103BD00083F840001846425435E02A48015D2A48DF
:103BE00090F8402090F84000401C274B83F840009C
:103BF0001846815490F84000072824DB1D46E81C35
:103C000000F030F90746284690F84010F81D814230
:103C100018D1681C00F026F98146AA1D394648468D
:103C200000F0D6F880466879404504D1284690F8DF
:103C3000401000F095F80020134981F8400081F809
:103C4000410000BF00BF601CC4B2B442AFDB15E04E
:103C50000D4890F84000002810DD0B4890F8411006
:103C600090F84100401C084A82F84100C82905DD4F
:103C70000020114681F8400081F8410000BF8AE72A
:103C80007C000020860200204402002070B52448F9
:103C9000007868B9FFF7F8FE002022490860224941
:103CA000086001201E49087000202049087070BD7E
:103CB0001C491F48FEF75EFD00282FD019480068F8
:103CC000808850B1174800688288164800684FF411
:103CD0007A7301681748FEF7AFFB124800688188C5
:103CE00015A0FFF7E1F900BF0E48006885880024A1
:103CF00007E00C4800680068015D16A0FFF7D4F9E2
:103D0000641CAC42F5DB15A0FFF7CEF900BF0548F7
:103D1000006800F07FF800200249086000BFC6E795
:103D20007C00002080000020840000207D00002016
:103D3000C802002078010020756172742073656EDE
:103D400064202564206279746573202D2D2D2D2D1E
:103D50002D3E3A0030782530327820000D0A0000E0
:103D60002DE9F04104460D462B4622460C490D48EC
:103D7000FFF736FE29460CA0FFF796F900BF2F4645
:103D8000002604E0A15D0FA0FFF78EF9761CBE426D
:103D9000F8DB0EA0FFF788F900BFBDE8F081000056
:103DA000F53A0008F40200207561727420726563B0
:103DB00076202564206279746573203C2D2D2D2D8D
:103DC0002D2D3A0030782530327820000D0A000081
:103DD00030B503461446D8B280EA1320CDB268400D
:103DE00080EA1120002203E0A55C6840551CAAB2BD
:103DF0008A42F9DB30BD000013B50C464FF47A73EC
:103E0000012269460248FEF717FB00981CBD00001E
:103E10003001002010B5002821D0114B0022001FD6
:103E2000196803E0814203D80A4649680029F9D19C
:103E300052B11368841A9C4204D10068184410607F
:103E4000104602E0506000E0186039B102680B1AB9
:103E5000934203D10B681A4402604968416010BD67
:103E60009C000020014608784FF47F4202EA0020BF
:103E70004A781043704701804280012303727047E3
:103E8000F8B53948006850B900F05AFA012802D153
:103E90003549086003E04FF0FF303349086032488D
:103EA0000068012800D0F8BD3048007A002858D0BA
:103EB0002E4CA51D261D0027A1782088221D00F06C
:103EC0007FF8002012E0295C325C914204DD295C1D
:103ED000491E2954012707E0295C325C914203DA2C
:103EE000295C491C29540127411CC8B20228EADB7D
:103EF000EFB1002728788DF8000068788DF8010070
:103F000000208DF80200009800F05CF900F068FADB
:103F10009DF800009DF801100844282803DA0920C4
:103F2000FCF76EFE1CE00520FCF76AFE18E000209E
:103F30002072208860816088A081A08908B101205A
:103F400000E00020A0736A78297809A0FFF7ACF898
:103F500012A0FFF7A9F8054A917C108AFFF7C8FC68
:103F600000BF00BF9FE70000300000201C000020C1
:103F700063757272656E745F647574795F637720C0
:103F800025642C2063757272656E745F6475747934
:103F90005F7777202564202E200D0A006377206448
:103FA000696D6965722066696E697368202E200DDF
:103FB0000A0000000148807B704700001C000020C0
:103FC0002DE9FE4F82460C46914641F66411A1EB65
:103FD0000A00FCF7A5F905462249FCF763F9834678
:103FE00059464FF07E50FCF725F9029000200090D2
:103FF00001906000FCF794F907460299FCF720F95C
:1040000006461949FCF71CF905461849FCF74AF918
:1040100000906000FCF784F907465946FCF710F958
:1040200006461149FCF70CF905461049FCF73AF928
:1040300001900098FCF796F9074600F033F9054621
:10404000FCF777F989F800000198FCF78BF907462F
:1040500000F028F90546FCF76CF989F80100BDE885
:10406000FE8F000000806D4500007F430000484344
:1040700010B54FF400510248FCF766FF10BD000078
:1040800000100140FCF782FFFEF717FCFEF796FADE
:10409000FEF77AFAFEF72CFBFEF7D8FAFEF744FBA0
:1040A00001E000F037F8FCE7F0B50B30154D20F0DB
:1040B00007010024144A0FE003688B420BD38B42A4
:1040C00005D95E1A43184768C3E9006700E04368F2
:1040D000136002C004E0021D10680028ECD12046E5
:1040E000002802D1286808B10020F0BD064A074820
:1040F0001060074A121A22F00702C0E900240120CA
:104100002860D7E7A00000209C00002024030020A6
:104110002033002000BF00201C49087031E01B48FC
:10412000007800EB40001A4951F82000194909684D
:10413000081A1649097801EB4101154A02EB810181
:104140004968884218D3134800681049097801EB80
:10415000410142F821000D48007800EB4000114673
:1041600001EB8000806838B10849097801EB410112
:1041700002EB81018868804704480078401C0349AD
:104180000870024800780528C9DBC4E778000020E1
:104190003C0000203800002002480068401C014913
:1041A000086070473800002018B5002407E00020A0
:1041B000009020460099FEF723FB601CC4B2C82C77
:1041C000F5DB18BD11B5002405E020460099FEF787
:1041D00017FB601CC4B2C82CF7DB18BD10B5034830
:1041E000FEF796F90248FEF793F910BDC0010020D2
:1041F000020200202DE9F04104460E4617464FF01A
:1042000000080025022C01DA06B117B90020BDE82C
:10421000F08114B9DFF82C8003E0012C01D1DFF824
:104220002880002509E071194046FEF7BBFA10B15D
:10423000681CC5B201E02846E9E7BD42F3DB284629
:10424000E5E70000C0010020020200202DE9F04156
:1042500004460E4617464FF000080025022C01DAEE
:1042600006B117B90020BDE8F08114B9DFF82C8041
:1042700003E0012C01D1DFF82880002509E0711945
:104280004046FCF7CEFA10B1681CC5B201E02846E2
:10429000E9E7BD42F3DB2846E5E70000C001002066
:1042A000020200202DE9F04D07460E46FCF77CF98E
:1042B00004460D463A463346FCF773F9DFF86CA026
:1042C000DFF86CB01B4B0746884616F0004F4FF0E6
:1042D00000020AD0FCF7ACF90AD900225B46384646
:1042E0004146FCF7BDF91BD212E0FCF7A1F908D258
:1042F0000022534620462946FCF750F904460D4655
:104300000EE000225B4638464146FCF7A9F907D883
:104310000022534620462946FCF79FF804460D46E6
:104320003146204665F31E01BDE8F08D0000F03FE8
:104330000000E03F0000E0BF41700A1202707047C9
:1043400010B513A0FEF7B0FE42F2B050FFF7ACFE7E
:10435000184908600846006828B917A0FEF7A4FEAF
:104360004FF0FF3010BD1348016819A0FEF79CFE06
:1043700042F2B0510F480068FBF7FFFEFFF714FF51
:1043800000F02EF86420FCF73BFC0120EAE7000077
:1043900077733238313220696E6974207475726EA9
:1043A000206F666620616C6C206C65642E200D0A9F
:1043B00000000000140000206D616C6C6F632072BF
:1043C00067625F627566206661696C200D0A000095
:1043D0007267625F6275662025702E0D0A0000000C
:1043E00010B500200749087041F2D8230648002183
:1043F00002680648FDF72AFC00BF02480078002842
:10440000FBD010BD1800002014000020A4000020E4
:1044100002030405060708090A0B0C0D0E0F101005
:104420000102000000000000000001020304060772
:1044300008090000000001020304000000008C0ACB
:10444000000001008C0A640002008C0A00000300D6
:10445000B80B64000400B80B00000500AC0D64004C
:104460000600AC0D00000700A00F64000800A00FBC
:1044700000000900881364000A00881300000B0084
:10448000701764000C00701700000D0064196400C0
:104490006170705F6C65645F7475726E5F6F666685
:1044A000006170705F6C65645F7475726E5F6F6ED3
:1044B000006170705F6C65645F63775F62726967EB
:1044C00068746E6573735F7365740000FF000000AD
:1044D000FF000000FF00000000FF00000000FF617F
:1044E00070705F636D645F66663031006170705F2D
:1044F000636D645F3830303000636F6D5F72785F7A
:104500006D6573736167655F616E616C7900000052
:104510003045000800000020A40000000031000821
:10452000D4450008A40000207C36000010310008AB
:10453000000000000000000010000000010000006A
:1045400000127A0000000000010000008C0A000048
:104550000000000000008C0A000000008C0A6400CB
:10456000000000000000000000000000000000004B
:104570000A000000813E000800000000F401000075
:1045800071400008000000000A0000008D3C000897
:10459000000000000A000000893B00080000000045
:1045A0000A000000A53A000800000000000000001A
:1045B000000000000000000001FF0000F5350008C9
:1045C00000800000793500080000000000000000B5
:0445D00000000000E7
:04000005080000ED02
:00000001FF
